:040000008A15002835
:0E000600213083120313FD00FD0B07280800B4
:100014000F3083120313FC004730FD00FD0B102842
:0A002400FC0B10280000000008008B
:06002E00000000000800C4
:1000340083120313F801F9011030FC00710DF80D5F
:10004400F90D7408F8027508031C750FF9020318FA
:1000540032287408F80775080318750FF907031098
:0A006400F00DF10DFC0B2028080040
:10006E0083120317E91B3D2886133E288617691B4A
:10007E004228061343280617E91A472886124828ED
:10008E008616691A4C2806124D280616461851284F
:10009E00061552280611861517208611E9195928BA
:1000AE0086135A28861769195E2806135F280617C5
:1000BE00E9186328861264288616691868280612BD
:1000CE006928061646186D2806156E28061186151F
:1000DE0017208611461C75280A2076280320080052
:1000EE0083120313FB01FA01F9018030F800F10CC1
:1000FE00F00C031C8B287408F90775080318750F8C
:10010E00FA070318FB0A0310F01F93287408FA0766
:10011E0075080318750FFB07FB0CFA0CF90CF80C9D
:10012E00031C7E287B08F3007A08F2007908F100A0
:06013E007808F000080043
:10014400831203176408C7006508C800C901CA01FF
:060154000130C5000800A7
:10015A0083160313071583121211F030970508004E
:10016A00710DF80DF90D7408F8027508031C750F66
:10017A00F902F00DF10D0F30FC00710DF80DF90DBB
:10018A007408701CCE28F8027508031C750FF90252
:10019A00D328F80775080318750FF907F00DF10D44
:1001AA00FC0BC2287018DF287408F80775080318B2
:0801BA00750FF90700000800B1
:1001C2008312031746106408E90037200317461408
:0201D200080023
:0E01D400831203175A088A0059088200080097
:1001E200831203132230FC00F801F901FA01FB012A
:1001F200FC03031927290310FB0CFA0CF90CF80C69
:10020200F30CF20CF10CF00C031CF928FC0303199B
:1002120019297408F80775080318750FF907760885
:100222000318760FFA0777080318770FFB07FD28E4
:100232007408F80775080318750FF907760803188C
:0E024200760FFA0777080318770FFB070800FE
:1002500083120317E7010530670203183629670880
:100260006607840020308000E70A2B2967086607AC
:1002700084008001E70367086607E8000A30F4009D
:10028000F5016408F0006508F1001A207808F00014
:100290007908F1003030F00703176808840070080F
:1002A00080000A30F400F5016408F0006508F100F0
:1002B0001A2070080317E4007108E5000030710689
:1002C000031D642900307006031D67296929E703AF
:0402D0003B290800BE
:1002D4007C29803083120317E4008F29C030E400A6
:1002E4008F299430E4008F29D430E4008F298030A2
:1002F400E4008F29831203176408013A03196B2958
:100304006408023A031970296408033A031973292B
:100314006408043A0319762979296503F00064080E
:10032400F0077008E40046147008E900372003174A
:0E03340046106608E90037200317461408003B
:0C03420083120313950117129712080094
:10034E00831603130711831212150C30970408003D
:10035E00831603131208013EF000F1010318F10A8F
:10036E00831203176408F400F50177200630F200BB
:10037E007008F4007108F50072080319CB29F50C0A
:10038E00F40CF513FF3EC4290430F1007408F0009C
:10039E0071080319D629F00D7010FF3ED0293030A8
:1003AE007005F3007408F0007508F100F10CF00C04
:1003BE00F113F10CF00CF113700895000F30970546
:0603CE007308970408000B
:1003D40083120313121492149C3083169200A121E9
:0C03E400A72180300317E400AF210800BF
:1003F000831203137408003A031D072A7508003A94
:10040000031D072AFF30F0007F30F100602A8312BD
:100410000313FD01F901F801710870040319003498
:1004200071087506FA00FA1BFD09FB01F51F1D2A6C
:10043000F409F509F40A0319F50AF11F242AF00951
:10044000F109F00A0319F10A71087504FA00FA1BA0
:10045000392AB5207B184C2AFD1F0034F009F10918
:10046000F00A0319F10AF809F909F80A0319F90A57
:100470000034F51F482AF11B442A7108F90070085E
:10048000F800F101F0012C2AF101F001F00A00342A
:10049000F109F009FB0A292AF80A0319F90A740874
:1004A0007802031D2C2A75087902031D2C2AF901F4
:1004B000F801F00A0319F10AF11F2C2A0000FF3499
:0204C000080032
:1004C200831203174508031D6B2A0130E400003034
:1004D200E500A2204708F0004808F1004908F200B0
:1004E2004A08F3006D30F4004E30F500C630F600D5
:1004F2004130F700F1203930F5003030F600F701D5
:10050200F8017008F50771080318710FF6077208F1
:100512000318720FF70773080318730FF8077708A9
:10052200F0007808F1000030F81BFF30F200F30011
:10053200FF30F0057F30F1050030F205F305700859
:100542000317C7007108C8007208C9007308CA00FF
:0205520008009F
:10055400403083120317E90037200317DD015D08DB
:10056400073C031CC72A5D085C3EF00006300318F4
:10057400013EF1007008D9007108DA00EA208A11FE
:100584000A12E400E120DD0AB12A0230E900372032
:1005940003175B08E4005C08E500E6016A21080033
:1005A400583083120317E90037200317DD015D0873
:1005B400073C031CEF2A5D08643EF0000630031874
:1005C400013EF1007008D9007108DA00EA208A11AE
:1005D4000A12E400E120DD0AD92A0230E9003720BA
:1005E40003175B08E4005C08E5000330E6006A21B9
:0205F4000800FD
:1005F60083120317E001E1015B08E2005C08E300F7
:1006060080305C06F00080307002031D0C2B003039
:100616005B0203181A2B0130E0000030E1005B0892
:10062600003CE2005C08031C013EE301E3026208B1
:10063600E4006308E5005D08E60028210630DE00D8
:100646000030DF005F08003C031D2B2B5E08003CDA
:100656000318462B5E085D07F20001305E02F000CB
:100666000030031C013E5F02F10070085D07840044
:100676000008F00072088400700880000130DE0275
:10068600031CDF03252B5D088400203080006008F2
:1006960061040319642BDE01DF015E085D07840037
:1006A6000008203A031D5B2BDE0A0319DF0A502BD4
:1006B6000130DE02031CDF035E085D0784002D3077
:0406C60080000800A8
:1006CA00583083120317E90037200317DD015D084C
:1006DA00073C031C822B5D08743EF00006300318A9
:1006EA00013EF1007008D9007108DA00EA208A1187
:1006FA000A12E400E120DD0A6C2B0230E9003720FF
:10070A0003175B08E4005C08E5000330E6006A2191
:02071A000800D5
:10071C00503083120317E90037200317DD015D0801
:10072C00073C031CAB2B5D087C3EF0000630031825
:10073C00013EF1007008D9007108DA00EA208A1134
:10074C000A12E400E120DD0A952B0230E900372083
:10075C0003175B08E4005C08E5000230E6006A2140
:02076C00080083
:10076E00483083120317E90037200317DD015D08B7
:10077E00073C031CD42B5D086C3EF00006300318BA
:10078E00013EF1007008D9007108DA00EA208A11E2
:10079E000A12E400E120DD0ABE2B0230E900372008
:1007AE0003175B08E4005C08E5000130E6006A21EF
:0207BE00080031
:1007C000F22B803083120317DB00052CC030DB00D6
:1007D000052C9430DB00052CD430DB00052C803058
:1007E000DB00052C831203175B08013A0319E12B88
:1007F0005B08023A0319E62B5B08033A0319E92B5D
:100800005B08043A0319EC2BEF2B5C03F0005B0848
:10081000F0077008DB007008E90037200317461066
:10082000DE015E085D078400000803191F2C5E08C6
:100830005D0784000008E400E120DE0A112C461464
:020840000800AE
:1008420083160313861106110612861206138613E7
:1008520083128611061186130613861206120A20C7
:100862000A200A20861606168615172086110A20E7
:100872008615172086110A208615172086110A2050
:1008820006128615172086110A2086151720861152
:10089200861286178615172086110A2086130616D9
:1008A20086151720861106128615172086110A2032
:1008B20086151720861106168615172086110A201E
:1008C2000612861517208611861706178616061633
:0E08D2008615172086110A2003174614080009
:1008E000403083120317E90037200317DD015D084C
:1008F000073C031C8D2C5D08543EF00006300318A5
:10090000013EF1007008D9007108DA00EA208A116E
:100910000A12E400E120DD0A772C0230E9003720DA
:1009200003175B08E4005C08E500E6016A210800A3
:04093000AD200800EE
:100934008312031312149214F93083169200A12126
:0C094400A72140300317E400AF21080099
:10095000803083120313F0008030031744067002C6
:10096000031DB42C43080A3C031CC22C0330FB00BB
:100970000830FC007730FD00FD0BBC2CFC0BBC2CC0
:10098000FB0BBC2C8030F000803044067002031D4D
:10099000CB2C43080A3C0318E42C80304406F000BA
:1009A00080307002031DD62C143043020318E42C4F
:1009B0000230FB008630FC009930FD00FD0BDE2C80
:1009C000FC0BDE2CFB0BDE2C80304406F00080306C
:1009D0007002031DED2C14304302031C042D8030E3
:1009E0004406F00080307002031DF82C1E304302D4
:1009F0000318042DD030FC00C930FD00FD0BFE2C87
:100A0000FC0BFE2C0000000080304406F00080301B
:100A10007002031D0D2D1E304302031C232D803058
:100A20004406F00080307002031D182D323043025E
:100A30000318232DB630FC00D030FD00FD0B1E2D19
:100A4000FC0B1E2D000080304406F0008030700248
:100A5000031D2C2D32304302031C412D80304406EF
:100A6000F00080307002031D372D643043020318FC
:100A7000412D9C30FC00D730FD00FD0B3D2DFC0BC3
:100A80003D2D80304406F00080307002031D4A2D59
:100A9000643043020318562D8230FC00DD30FD0027
:0E0AA000FD0B502DFC0B502D00000000080037
:100AAE00403083120317E90037200317DD015D087C
:100ABE00073C031C742D5D084C3EF00006300318F5
:100ACE00013EF1007008D9007108DA00EA208A119F
:100ADE000A12E400E120DD0A5E2D0230E900372023
:100AEE0003175B08E4005C08E500E6016A210800D4
:100AFE00EA208A110A128000840AD90A0319DA0A36
:080B0E00F003031D7F2D080018
:100D200020308400483083120313F0008B30031707
:100D3000D9000530DA007F25A030840034308312DA
:100D40000313F000D3300317D9000530DA007F25F4
:100D500068308400033083120313F00084300317DB
:100D6000D9000630DA007F25D43084001230831297
:100D70000313F00007300317D9000630DA007F258F
:100D80006B308400033083120313F0008D3003179F
:100D9000D9000630DA007F25103083178400123026
:100DA00083120313F0002B300317D9000630DA004A
:100DB0007F258313E6308400033083120313F00091
:100DC0008A300317D9000630DA007F2522308317D6
:100DD00084000F3083120313F0003D300317D90055
:100DE0000630DA007F258313E93084000330831254
:100DF0000313F00087300317D9000630DA007F258F
:100E0000313083178400123083120313F00019303D
:0E0E10000317D9000630DA007F25831308008F
:101000008A1190268A1507308316031388008A11E7
:1010100021248A150C30E9008A1137208A15013005
:101020000317DB000130DC00BD30DD008A11E02356
:101030008A150B30FB002630FC005D30FD00FD0BF7
:101040001F28FC0B1F28FB0B1F280000000002308C
:10105000DB000130DC00C830DD008A11E0238A1596
:101060000D30FB002D30FC00D730FD00FD0B362885
:10107000FC0B3628FB0B3628000000000130E9008D
:101080008A1137208A1501300317DB000130DC009C
:10109000A030DD008A11E0238A150B30FB002630DA
:1010A000FC005D30FD00FD0B5328FC0B5328FB0BAF
:1010B0005328000000000230DB000130DC00AF30BC
:1010C000DD008A11E0238A150B30FB002630FC007E
:1010D0005D30FD00FD0B6A28FC0B6A28FB0B6A28BB
:1010E000000000000130E9008A1137208A15013024
:1010F0000317DB000130DC002030DD008A11E02323
:101100008A150B30FB002630FC005D30FD00FD0B26
:101110008728FC0B8728FB0B872800000000023083
:10112000DB000130DC003030DD008A11E0238A155D
:101130001030FB003930FC000D30FD00FD0B9E2807
:10114000FC0B9E28FB0B9E28000000000130E900EC
:101150008A1137208A151330EE000030EF00031794
:10116000C301C401013083160313EC000030ED000D
:1011700083120313081DD72801300317DB00013049
:10118000DC004930DD008A11E0238A150230DB00E3
:101190000130DC008A1157258A150230DB0002304D
:1011A000DC005A30DD008A11E0238A15B8280313C9
:1011B00083120819E0288316EE0A0319EF0AD728CC
:1011C000013083120317E9008A1137208A15013094
:1011D0000317DB000130DC003A30DD008A11E02328
:1011E0008A150930FB001E30FC00E430FD00FD0BC9
:1011F000F728FC0BF728FB0BF72800000130DB0079
:101200000130DC002230DD008A11E0238A158A11CA
:1012100098248A1501300317DB000530DC00E93023
:10122000DD008A11E0238A154308DB004408DC0056
:101230004B30DD008A11FB228A150130DB000830BB
:10124000DC004B30DD008A11E0238A1503130819F6
:101250004F29003003175306031D30290030520672
:10126000031D35298A11EA218A1501300317D5009B
:101270000030D600D20A0319D30A8030F000803043
:1012800053067002031D46295208043C03184E29D8
:101290000230D5000030D600D201D3015629031701
:1012A0000230D5000030D600D201D3017B29550889
:1012B000DB000230DC008A1170248A15D701D801C6
:1012C0000130DB000130DC008A11D2228A158B2923
:1012D0005508DB000230DC008A11AA228A15013091
:1012E000D7000030D8000130DB000130DC008A116B
:1012F00065238A158B2900305806031D812901308A
:1013000057060319572900305806031D8929003054
:101310005706031968298030831603136D06F00001
:1013200080307002031D962900306C02031C602A75
:1013300080306D06F00080307002031DA1290A3054
:101340006C020318602A023083120317DB000313B8
:101350006E080317DC008A11B7238A158A11A824A6
:101360008A15003003136F06031DB82902306E067C
:10137000031DC629003003175606031DC12901307D
:101380005506031DC629C30A0319C40A01300313F5
:10139000EE02031CEF0331300317D40000300313B7
:1013A0006F06031DD52902306E06031D2B2A00305F
:1013B00003175606031DDE2902305506031D2B2A8E
:1013C0008A119A248A150630FB001330FC00AD30D8
:1013D000FD00FD0BE929FC0BE929FB0BE9290000C5
:1013E00000008A1198248A1501300317DB000130B0
:1013F000DC005408DD008A11E0238A150B30FB0065
:101400002630FC005D30FD00FD0B042AFC0B042A95
:10141000FB0B042A000000000230DB000130DC007E
:101420006B30DD008A11E0238A150230DB000330C7
:10143000DC004B30DD008A11E0238A152930FB00E7
:101440009630FC007F30FD00FD0B242AFC0B242A83
:10145000FB0B242A0328003003136F06031D322AD6
:1014600000306E06031D592A1330EE000030EF00E5
:1014700083166E086C0783120317E40083160313A8
:101480006D080318013E6F0783120317E5008A11E8
:10149000A2208A158A1161228A15E830F4000330EF
:1014A000F5008A11F8218A1570088316EC0071087E
:1014B000ED00013083120317E9008A1137208A15E5
:1014C000803083166D06F00080307002031D6A2A9A
:1014D0000A306C02031C672B80306D06F0008030F0
:1014E0007002031D752A14306C020318672B02303A
:1014F00083120317DB0003136E030317DC008A114A
:10150000B7238A150230DB0003136E080317DC00D3
:101510008A118E238A158A11A8248A150030031394
:101520006F06031D952A02306E06031DA42A0030A3
:1015300003175606031D9E2A01305506031DA42AD3
:101540000230C3070318C40A01300313EE02031C60
:10155000EF0310300317D400003003136F06031D90
:10156000B32A01306E06031DBF2A0030031756064A
:10157000031DBC2A02305506031DBF2AE62A00308F
:1015800003136F06031DC62A02306E06031DD22AFE
:10159000003003175606031DCF2A02305506031DDF
:1015A000D22AE62A003003136F06031DD92A03301E
:1015B0006E06031DE52A003003175606031DE22AB6
:1015C00002305506031DE52AE62A322B8A119A2499
:1015D0008A150630FB001330FC00AD30FD00FD0B1A
:1015E000EF2AFC0BEF2AFB0BEF2A000000008A1108
:1015F00098248A1501300317DB000130DC00540801
:10160000DD008A11E0238A150B30FB002630FC0038
:101610005D30FD00FD0B0A2BFC0B0A2BFB0B0A2B8C
:10162000000000000230DB000130DC006830DD002B
:101630008A11E0238A150230DB000330DC004B30D6
:10164000DD008A11E0238A151F30FB007130FC0099
:101650001E30FD00FD0B2A2BFC0B2A2BFB0B2A2B2B
:1016600000000328003003136F06031D392B0030E0
:101670006E06031D602B1330EE000030EF00831662
:101680006C086E0783120317E400831603136F08B8
:101690000318013E6D0783120317E5008A11A2208B
:1016A0008A158A1161228A15E830F4000330F500AA
:1016B0008A11F8218A1570088316EC007108ED0074
:1016C000013083120317E9008A1137208A15803010
:1016D00083166D06F00080307002031D712B1430EC
:1016E0006C02031C802C023083120317DB000230D3
:1016F00003136E020317DC008A11B7238A15023028
:10170000DB0003136E030317DC008A118E238A1596
:101710000230DB0003136E080317DC008A11B723C5
:101720008A158A11A8248A15003003136F06031D39
:101730009B2B02306E06031DAA2B003003175606A2
:10174000031DA42B01305506031DAA2B0330C3072C
:101750000318C40A01300313EE02031CEF03D43054
:101760000317D400003003136F06031DB92B01309B
:101770006E06031DC52B003003175606031DC22B32
:1017800002305506031DC52BFF2B003003136F06D7
:10179000031DCC2B02306E06031DD82B003003171F
:1017A0005606031DD52B02305506031DD82BFF2BE3
:1017B000003003136F06031DDF2B03306E06031D7D
:1017C000EB2B003003175606031DE82B023055069D
:1017D000031DEB2BFF2B003003136F06031DF22BB1
:1017E00004306E06031DFE2B003003175606031D42
:1017F000FB2B02305506031DFE2BFF2B4B2C8A11B1
:101800009A248A150630FB001330FC00AD30FD0031
:10181000FD0B082CFC0B082CFB0B082C0000000017
:101820008A1198248A1501300317DB000130DC008F
:101830005408DD008A11E0238A150B30FB002630A6
:10184000FC005D30FD00FD0B232CFC0B232CFB0B5F
:10185000232C000000000230DB000130DC00E63009
:10186000DD008A11E0238A150230DB000330DC0042
:101870004B30DD008A11E0238A151F30FB007130E8
:10188000FC001E30FD00FD0B432CFC0B432CFB0B1E
:10189000432C00000328003003136F06031D522C55
:1018A00000306E06031D792C1330EE000030EF007F
:1018B00083166E086C0783120317E4008316031364
:1018C0006D080318013E6F0783120317E5008A11A4
:1018D000A2208A158A1161228A15E830F4000330AB
:1018E000F5008A11F8218A1570088316EC0071083A
:1018F000ED00013083120317E9008A1137208A15A1
:041900000729812C06
:100B1600713475346534203473346F346C346F3407
:100B26002034713475346534723469346134003478
:100B360043346F3472347234653472342E342E3446
:040B46002E34003415
:100B4A0049346E346934633469346F342034203460
:0E0B5A00203420342034203420342034003461
:100B6800503472346534733469346F346E3461349C
:100B7800203462346F3474346F346E342E342E342F
:020B8800003437
:100B8A003C347B34523455344E342134213452347B
:0C0B9A0055344E34213421347D340034B5
:100BA6004C346134203468346934733474346F34AB
:0E0BB6007234693461342034643465340034A0
:100BC40075346E342034643469346E346F34733461
:0C0BD40061347534723469346F340034BD
:100BE00070346F3473346F3463346F343234303470
:060BF00030343034003403
:100BF600703472346534733465346E3474346134ED
:080C06002E342E342E3400348C
:100C0E005534703473342134213421342034553426
:100C1E002E345534203420342034203420342034E3
:040C2E00203400343A
:100C32005534703473342134213421342034553402
:100C42002E345534203420342034203420342034BF
:040C52002034003416
:100C560055347034733421342134213420345534DE
:100C66002E3455342034203420342034203420349B
:040C760020340034F2
:100C7A0020342034203420342034203420342034CA
:0E0C8A00203420342034203420342034003430
:100C98000734173416341F340E340A340F34003432
:100CA8000734173416341F340E3402340334003436
:100CB8000734173416341F340E3408340C34003417
:100CC8001C341D3418340234083400340034003421
:100CD8000634163416341E341E34063406341F34D3
:100CE8001D341C34193402341434003400340034F4
:100CF800003400340C340D340F340C340C341F34ED
:060D080050343D340034BC
:060D0E0050343D340034B6
:060D140050343D340034B0
:060D1A0050343D340034AA
:02400E004A2F37
:00000001FF
